:100000000C942A000C9434000C9434000C943400AA
:100010000C9434000C9434000C9434000C94340090
:100020000C9434000C9434000C9434000C94340080
:100030000C9434000C9434000C9434000C94340070
:100040000C9434000C9434000C9434000C94340060
:100050000C94340011241FBECFE5D4E0DEBFCDBF29
:100060000E9436000C9462000C94000014BA8FEFCA
:100070008ABB87BB18BA1BBA81E085BB90E04DEC08
:1000800001C090E08BB3949F812D112486958695B5
:1000900086958BBB2BB350E1259F90011124880FCF
:1000A000382F330F330F830F592F581B252B2BBBA2
:1000B00083B38823E9F383B38130E9F39F5F9436F8
:0800C00009F7DFCFF894FFCF30
:00000001FF
